:0400000500000A816C
:020000040000FA
:1000000000040020810A000015070000610A0000BA
:100010001F07000029070000330700000000000050
:10002000000000000000000000000000A50A000021
:100030003D070000000000004707000051070000D6
:100040005B070000650700006F07000079070000EC
:10005000830700008D07000097070000A10700003C
:10006000AB070000B5070000BF070000C90700008C
:10007000D3070000DD070000E7070000F1070000DC
:10008000FB070000050800000F0800001908000029
:10009000230800002D080000370800004108000078
:1000A0004B080000550800005F08000069080000C8
:1000B000730800007D080000870800009108000018
:1000C0009B080000A5080000AF080000B908000068
:1000D000C3080000CD080000D7080000E1080000B8
:1000E000EB080000F5080000FF0800000909000007
:1000F000130900001D090000270900003109000054
:100100003B0900001FB500F003F88DE80F001FBD8C
:1001100000F0ACBC40F6FC7108684FF01022401CA7
:1001200008D00868401C09D00868401C04D0086842
:1001300000F037BA9069F5E79069F9E7704770B554
:100140000B46010B184400F6FF70040B4FF0805073
:100150000022090303692403406943431D1B104621
:1001600000F048FA29462046BDE8704000F042BA47
:10017000F0B54FF6FF734FF4B4751A466E1E11E0DA
:10018000A94201D3344600E00C46091B30F8027B3B
:10019000641E3B441A44F9D19CB204EB134394B25D
:1001A00004EB12420029EBD198B200EB134002EBB2
:1001B000124140EA0140F0BDF34992B00446D1E952
:1001C0000001CDE91001FF224021684600F0F4FB58
:1001D00094E80F008DE80F00684610A902E004C8FB
:1001E00041F8042D8842FAD110216846FFF7C0FF7C
:1001F0001090AA208DF8440000F099F9FFF78AFFCB
:1002000040F6FC7420684FF01025401C0FD0206889
:1002100010226946803000F078F92068401C08D030
:100220002068082210A900F070F900F061F9A869AF
:10023000EEE7A869F5E74FF080500369406940F6A2
:10024000FC71434308684FF01022401C06D0086838
:1002500000F58050834203D2092070479069F7E788
:100260000868401C04D00868401C03D00020704778
:100270009069F9E70420704770B504460068C34DE3
:10028000072876D2DFE800F033041929631E250021
:10029000D4E9026564682946304600F062F92A46CE
:1002A0002146304600F031F9AA002146304600F0E0
:1002B00057FB002800D0032070BD00F009FC4FF46C
:1002C000805007E0201D00F040F90028F4D100F034
:1002D000FFFB60682860002070BD241D94E80700C3
:1002E000920000F03DFB0028F6D00E2070BDFFF715
:1002F000A2FF0028FAD1D4E901034FF0805100EBAE
:10030000830208694D69684382420ED840F6F8704E
:1003100005684FF010226D1C09D0056805EB8305B8
:100320000B6949694B439D4203D9092070BD55694A
:10033000F4E70168491C03D00068401C02D003E0C8
:100340005069FAE70F2070BD2046FFF735FFFFF731
:1003500072FF0028F7D1201D00F0F7F80028F2D135
:1003600060680028F0D100F0E2F8FFF7D3FE00F05B
:10037000BFF8072070BD10B50C46182802D0012028
:10038000086010BD2068FFF777FF206010BD41684E
:10039000054609B1012700E0002740F6F8742068FF
:1003A0004FF01026401C2BD02068AA68920000F065
:1003B000D7FA38B3A86881002068401C27D020688D
:1003C000FFF7BDFED7B12068401C22D026684FF051
:1003D0008050AC686D68016942695143A9420DD9EA
:1003E000016940694143A14208D92146304600F0E5
:1003F000B8F822462946304600F087F800F078F831
:100400007069D2E700F093F8FFF784FEF6E77069B1
:10041000D6E77669DBE740F6FC7420684FF01026DB
:10042000401C23D02068401C0CD02068401C1FD0EA
:100430002568206805F18005401C1BD027683879A5
:10044000AA2819D040F6F8700168491C42D001680A
:10045000491C45D00168491C3ED001680968491C07
:100460003ED00168491C39D000683EE0B069DAE747
:10047000B569DEE7B769E2E710212846FFF778FEA5
:100480003968814222D12068401C05D0D4F8001080
:1004900001F18002C03107E0B169F9E730B108CA63
:1004A00051F8040D984201D1012000E000208A4259
:1004B000F4D158B1286810B1042803D0FEE72846CB
:1004C000FFF765FF3149686808600EE0FFF722FE1C
:1004D00000F00EF87169BBE77169BFE7706904E06D
:1004E0004FF480500168491C01D000F0CBFAFEE7C0
:1004F000BFF34F8F26480168264A01F4E06111439B
:100500000160BFF34F8F00BFFDE72DE9F0411746B3
:100510000D460646002406E03046296800F054F8EF
:10052000641C2D1D361DBC42F6D3BDE8F08140F69B
:10053000FC700168491C04D0D0F800004FF48051D1
:10054000FDE54FF010208069F8E74FF080510A690F
:10055000496900684A43824201D810207047002050
:10056000704770B50C4605464FF4806608E0284693
:1005700000F017F8B44205D3A4F5806405F5805562
:10058000002CF4D170BD0000F40A0000000000202F
:100590000CED00E00400FA05144801680029FCD0C5
:1005A0007047134A0221116010490B68002BFCD0E0
:1005B0000F4B1B1D186008680028FCD0002010603D
:1005C00008680028FCD07047094B10B501221A605A
:1005D000064A1468002CFCD0016010680028FCD08A
:1005E0000020186010680028FCD010BD00E4014015
:1005F00004E5014070B50C46054600F073F810B9EB
:1006000000F07EF828B121462846BDE8704000F091
:1006100007B821462846BDE8704000F037B8000012
:100620007FB5002200920192029203920A0B000B06
:100630006946012302440AE0440900F01F0651F80C
:10064000245003FA06F6354341F82450401C8242F8
:10065000F2D80D490868009A10430860081D016827
:10066000019A1143016000F03DF800280AD00649C4
:1006700010310868029A10430860091D0868039A3F
:10068000104308607FBD00000006004030B50F4CED
:10069000002200BF04EB0213D3F800582DB9D3F8A1
:1006A000045815B9D3F808581DB1521C082AF1D3C3
:1006B00030BD082AFCD204EB0212C2F80008C3F8CD
:1006C00004180220C3F8080830BD000000E0014013
:1006D0004FF08050D0F83001082801D0002070473A
:1006E000012070474FF08050D0F83011062905D016
:1006F000D0F83001401C01D0002070470120704725
:100700004FF08050D0F830010A2801D00020704707
:100710000120704708208F490968095808471020B0
:100720008C4909680958084714208A4909680958FA
:100730000847182087490968095808473020854923
:100740000968095808473820824909680958084744
:100750003C20804909680958084740207D490968BC
:100760000958084744207B49096809580847482028
:1007700078490968095808474C207649096809589A
:10078000084750207349096809580847542071499F
:1007900009680958084758206E49096809580847E8
:1007A0005C206C4909680958084760206949096854
:1007B00009580847642067490968095808476820AC
:1007C00064490968095808476C2062490968095852
:1007D000084770205F4909680958084774205D4937
:1007E00009680958084778205A490968095808478C
:1007F0007C205849096809580847802055490968EC
:10080000095808478420534909680958084788202F
:1008100050490968095808478C204E490968095809
:10082000084790204B4909680958084794204949CE
:10083000096809580847982046490968095808472F
:100840009C204449096809580847A0204149096883
:1008500009580847A4203F49096809580847A820B3
:100860003C49096809580847AC203A4909680958C1
:100870000847B0203749096809580847B420354966
:10088000096809580847B8203249096809580847D3
:10089000BC203049096809580847C0202D4909681B
:1008A00009580847C4202B49096809580847C82037
:1008B0002849096809580847CC2026490968095879
:1008C0000847D0202349096809580847D4202149FE
:1008D000096809580847D8201E4909680958084777
:1008E000DC201C49096809580847E02019490968B3
:1008F00009580847E4201749096809580847E820BB
:100900001449096809580847EC2012490968095830
:100910000847F0200F49096809580847F4200D4995
:10092000096809580847F8200A490968095808471A
:10093000FC2008490968095808475FF48070054998
:10094000096809580847000003480449024A034B54
:100950007047000000000020000B0000000B0000AA
:1009600040EA010310B59B070FD1042A0DD310C82C
:1009700008C9121F9C42F8D020BA19BA884201D97E
:10098000012010BD4FF0FF3010BD1AB1D30703D0C6
:10099000521C07E0002010BD10F8013B11F8014B7C
:1009A0001B1B07D110F8013B11F8014B1B1B01D198
:1009B000921EF1D1184610BD02F0FF0343EA032254
:1009C00042EA024200F005B87047704770474FF0A6
:1009D00000020429C0F0128010F0030C00F01B800C
:1009E000CCF1040CBCF1020F18BF00F8012BA8BF1A
:1009F00020F8022BA1EB0C0100F00DB85FEAC17CDE
:100A000024BF00F8012B00F8012B48BF00F8012B90
:100A100070474FF0000200B51346944696462039C1
:100A200022BFA0E80C50A0E80C50B1F12001BFF4A7
:100A3000F7AF090728BFA0E80C5048BF0CC05DF80D
:100A400004EB890028BF40F8042B08BF704748BF5B
:100A500020F8022B11F0804F18BF00F8012B7047CF
:100A6000014B1B68DB6818470000002009480A4951
:100A70007047FFF7FBFFFFF745FB00BD20BFFDE719
:100A8000064B1847064A1060016881F308884068E1
:100A900000470000000B0000000B000017040000DE
:100AA000000000201EF0040F0CBFEFF30881EFF3ED
:100AB0000981886902380078182803D100E0000015
:100AC000074A1047074A12682C3212681047000084
:100AD00000B5054B1B68054A9B58984700BD0000B0
:100AE0007703000000000020F00A0000040000006E
:100AF000001000000000000000FFFFFF0090D00386
:02000004000FEB
:1040000000000420C1B20F00E9B20F00EBB20F00B4
:10401000EDB20F00EFB20F00F1B20F000000000090
:10402000000000000000000000000000B5450F0087
:10403000F5B20F0000000000F7B20F00ED4D0F00C9
:10404000014F0F00FBB20F00FBB20F00FBB20F00DD
:10405000FBB20F00FBB20F00FBB20F00FBB20F0070
:10406000FBB20F00FBB20F00FBB20F00FBB20F0060
:10407000FBB20F00FBB20F00FBB20F00FBB20F0050
:10408000FBB20F0019730F00FBB20F00FBB20F0061
:10409000D5730F00FBB20F00754B0F00FBB20F0082
:1040A000FBB20F00FBB20F00FBB20F00FBB20F0020
:1040B000FBB20F00FBB20F00000000000000000088
:1040C000FBB20F00FBB20F00FBB20F00FBB20F0000
:1040D000FBB20F00FBB20F00FBB20F006D850F00AB
:1040E000FBB20F00FBB20F00FBB20F00000000009C
:1040F00000000000FBB20F0000000000FBB20F0048
:1041000000000000000000000000000000000000AF
:10411000000000000000000000000000000000009F
:10412000000000000000000000000000000000008F
:10413000000000000000000000000000000000007F
:10414000000000000000000000000000000000006F
:10415000000000000000000000000000000000005F
:10416000000000000000000000000000000000004F
:10417000000000000000000000000000000000003F
:10418000000000000000000000000000000000002F
:10419000000000000000000000000000000000001F
:1041A000000000000000000000000000000000000F
:1041B00000000000000000000000000000000000FF
:1041C00000000000000000000000000000000000EF
:1041D00000000000000000000000000000000000DF
:1041E00000000000000000000000000000000000CF
:1041F00000000000000000000000000000000000BF
:104200000348044B834202D0034B03B11847704765
:10421000A0820020A0820020000000000548064B7C
:104220001B1AD90F01EBA301491002D0034B03B1B4
:1042300018477047A0820020A082002000000000E4
:1042400010B5064C237843B9FFF7DAFF044B13B1DE
:104250000448AFF300800123237010BDA08200202A
:104260000000000054BD0F0008B5044B1BB1044909
:104270000448AFF30080BDE80840CFE7000000002D
:10428000A482002054BD0F00A3F5803A704700BF00
:10429000154B002B08BF114B9D46FFF7F5FF002182
:1042A0008B460F461148124A121A00F025F80C4BA3
:1042B000002B00D098470B4B002B00D098470020D4
:1042C000002104000D000B4800F09EF800F066F895
:1042D0002000290000F070FA00F088F800000800C3
:1042E000000000000000000000000420A082002068
:1042F00034CD002015440F00830730B547D0541E3D
:10430000002A3ED0CAB2034601E0013C39D303F88B
:10431000012B9D07F9D1032C2CD9CDB205EB052536
:104320000F2C05EB054535D9A4F1100222F00F0C36
:1043300003F1100EE6444FEA121C1A46C2E900557A
:10434000C2E9025510327245F8D10CF1010214F0A5
:104350000C0F03EB021204F00F0C13D0ACF10403AA
:1043600023F003030433134442F8045B9342FBD16C
:104370000CF003042CB1C9B21C4403F8011BA34286
:10438000FBD130BD64461346002CF4D1F9E7034657
:104390001446C0E71A46A446E0E700BF70B50F4BCD
:1043A0000F4DAB42A3EB050607D0B610002455F81D
:1043B000043B01349847A642F9D807F0ADFB094DFC
:1043C000094B5E1BAB424FEAA60606D0002455F807
:1043D000043B01349847A642F9D870BD948200206E
:1043E00094820020948200209C82002008B5002145
:1043F000044600F023F8034B1B6803B1984720469E
:1044000000F0B0F888850020002301461A461846BF
:1044100000F076B838B5074D074C2C1BA41005D01A
:10442000013C55F8043D9847002CF9D1BDE83840CF
:1044300007F078BBA08200209C8200202DE9F04F7D
:10444000294F83B03E6801905EB38B464FF0000960
:104450004FF001087468651E23D4013406EB840410
:10446000BBF1000F20D173682268013BAB420CBF47
:104470007560C4F800907AB1D6F88811D6F804A017
:1044800008FA05FC1CEA010F1AD1904771683A68D6
:10449000514522D1B24220D1013D6B1CA4F104044C
:1044A000DED103B0BDE8F08FD4F800315B45DAD03F
:1044B000013D6A1CA4F10404F6D103B0BDE8F08FFD
:1044C000D6F88C31D4F880101CEA030F09D101987A
:1044D000904771683A685145DCD0002AE1D0164611
:1044E000B8E708469047D1E7BC820020024B13B1E1
:1044F0000248FFF789BF70470000000015440F0015
:1045000070B4164D2C681CB365681F2D23DC38B9B8
:10451000AB1C0135656044F82310002070BC704767
:1045200004EB850C0228CCF88820D4F888614FF081
:10453000010202FA05F246EA0206C4F88861CCF8E4
:104540000831E5D1D4F88C311343C4F88C31DFE75E
:10455000034C2C60D8E74FF0FF30DFE7BC8200202F
:10456000C0820020FEE700BF10B50C46E0B9096824
:10457000C1B10E48814207D0431A3B2B0ED83C23D1
:104580005A5CC254013BFBD2084800223C2103F094
:1045900019FA074B18800023236010BD3C2207F056
:1045A0007BF8F1E70E23F7E70123F5E7827F002090
:1045B000807F0020074A6FF002039E4502D1EFF38F
:1045C000098101E0EFF308818869A0F10200007819
:1045D000104700BF69450F0038B50446A8B13C211B
:1045E0000C48002203F0EEF90B490B8883420ED1F0
:1045F000084A02F13C0052F8045B44F8045B824232
:10460000F9D101330B80002038BD0E20FCE70B20D0
:10461000FAE700BF827F0020807F00200B2970B561
:104620000446154608462FD92389053304EB430178
:104630002044431ADAB2012A26D9814224D81348E9
:1046400007F02AF82388522B06D1AB0711D06288D5
:104650004CF668639A420CD00F2014E034F8022F15
:10466000824204D0AE89964203F1010308D10020B2
:1046700009E034F8081F00234FF6FE704FF4405550
:104680009942EBD80B2070BD0920FCE78C850020F7
:1046900008B5002203F096F9034B1B88834214BF30
:1046A0000B20002008BD00BF8C85002038B50C4CC5
:1046B00021684B1C054612D00A484FF4805207F07F
:1046C00085F848B115B1206800F076FC05492068EE
:1046D0004FF4806200F090FC4FF0FF33236038BD50
:1046E00000800020988500202DE9F041DFF844800B
:1046F000044624F47F671846D8F8003027F00F07E7
:10470000BB420D46164609D0FFF7D0FF0848C8F84F
:1047100000704FF48052394606F0BEFF0448C4F3DF
:104720000B04324629462044BDE8F04106F0B4BFF0
:104730009885002000800020BFF34F8F0549064B6D
:10474000CA6802F4E0621343CB60BFF34F8F00BF2F
:10475000FDE700BF00ED00E00400FA054BDF704705
:1047600010DF704711DF704713DF704718DF7047A5
:1047700060DF704769DF704761DF70471FB5002356
:10478000CDE901330393684602230093FFF7EEFF60
:1047900005B05DF804FB08B54FF0E023D3F8F03D19
:1047A000DB0700D500BEFFF7C7FF0000014B1878FC
:1047B000704700BF9A9500202DE9FF48B14B40F6A5
:1047C0000212C3F8402500F061FA00F07DFE0020DF
:1047D00000F014FB00F0F8FE48B1052000F00EFBDD
:1047E00000F004FF00F028FF062000F007FB4FF068
:1047F0008043A54FD3F81C45B12C0CBF01230023E7
:104800003B7040D0A4F1A8014B424B419F4D4FF06B
:1048100080422B70D2F8001401F00108002B40F008
:104820000C814E2C31D0572C2FD0994B1B681A6815
:10483000984B9A4203D1B8F1000F40F0FE806D2CE6
:1048400040F004814FF080430022C3F81C2500F0A3
:1048500069FA00F073FDA0B100F0B6FE88B94FF41C
:1048600040535A688C4B9A4205D13B780BB9FFF7FD
:1048700085FFFFF777FF864B1B6800221A6000F068
:1048800077FEFFF759FF0123C0E7C2F81C35012668
:104890002B78002B40F0DF80122000F085F910B15A
:1048A0000B2000F081F900F001032B7000F046FDB1
:1048B000DFF8E4B1764ADFF804A2814628B126B9D0
:1048C00013681968754B994214D04FF440535968D6
:1048D00059450ABF9B684FF4905303F500731B685A
:1048E000534500F0C880002E40F0C580B9F1000F9C
:1048F00040F0B38000214FF44050126843685B459C
:104900000ABF83684FF4905303F500731868634B34
:10491000504518BF0023136011B9B9F1000F96D1AB
:104920002B78002B00F0CC80082000F067FA3B7851
:104930000BB9FFF723FF01234FF474203B70FFF7FF
:1049400013FF574B57491868019001A8FFF708FF5C
:10495000554991F81623EC2352091341DA0708D57B
:10496000524B9A68002A00F088801A6842F480024C
:104970001A600C224E4B029300210DEB0200FFF750
:10498000BBFC40F20113029A039303A94020FFF7F6
:10499000F1FE0C2200210DEB0200FFF7ADFC9DF8AB
:1049A0000C30029A43F0010303A9A0208DF80C30CB
:1049B000FFF7E0FE0C2200210DEB0200FFF79CFC4C
:1049C00001261723029AADF80E3003A923208DF893
:1049D0000C60FFF7CFFE0C2200210DEB0200FFF769
:1049E0008BFC0623029A8DF80C6003A920208DF819
:1049F0000E60ADF81030FFF7BDFE02A8FFF7B8FE5D
:104A00004FF4405328785A685A450ABF9B684FF4C0
:104A1000905303F500731B68534503D0572C01D006
:104A20004E2C57D1012240F6B83100F065FD2B78AD
:104A3000002B52D0FFF796FE09E74FF0804300228B
:104A40006D2CC3F81C257FF422AF00E7122000F084
:104A5000ABF806461CE7012025E7B8F1000F3FF44C
:104A600049AF13680B491960124B134843F0010317
:104A70009847074A3EE701213DE74FF480030B606A
:104A800077E700BF00A00040989500209A9500208D
:104A900004800020D51A5A00DBE5B1517E67E54E4F
:104AA00046BB0F0097470F0000E100E0DC9B0020B1
:104AB0000080002040BB0F000048E8017CB0EE877A
:104AC000022000F09BF9A4F14E035842584103F034
:104AD00051FD95E700221146A7E703F09BFDB6E6DE
:104AE00010B58EB03423ADF802300DF10201002371
:104AF00001A8ADF80430FFF73FFE044640B9BDF809
:104B00000430102B07D0112B0CD001A801F026F88F
:104B100020460EB010BD054B01221A70072000F090
:104B20006DF9F2E7014B18700820F8E7999500201D
:104B300013B5002301A80193FFF710FE044650B9F6
:104B4000019802F099FA019B093B022B03D8034A12
:104B5000D05604F0CBFB204602B010BD30BB0F0096
:104B600008B5FFF7BDFF0528FBD1FFF7E1FF0528DA
:104B7000F7D108BD0021024A084602F043BE00BF3B
:104B8000614B0F001F2884BF00F01F00044B054A33
:104B900098BF4FF0A04300F5E07043F82020704725
:104BA000000300500C0003001F288ABF064B4FF083
:104BB000A04300F01F00D3F8103523FA00F0C043E3
:104BC00000F00100704700BF0003005070477047BD
:104BD00000234FF0FF328360C0F80035C0F8602535
:104BE000C0F86425C0F86825C0F86C2540F2FF3293
:104BF000C0F80435C0F80825C0F80C35C0F81035E9
:104C0000C0F81435C0F82035C0F8243570470000CE
:104C10001B4B00221F2930B5C3F800258BBF01F0C4
:104C20001F030B46174A4FF0A04203F5E07403251B
:104C300042F82450012404FA03F3C2F8083500F5C1
:104C4000AC700F4B002243F82010FF21C3F804255D
:104C50000220C3F808150421C3F80C15C3F8100589
:104C60000948C3F81425C3F82005C3F82415C3F870
:104C70002825C3F82C25C3F80045C3F8102130BD02
:104C800000C0014000030050949700204FF0804383
:104C900010B501220024DA601220C3F818459A608A
:104CA000FFF770FF0B20FFF76DFF174B4FF4C85055
:104CB00043F00103984714212046FFF7A9FFFFF7AF
:104CC00085FF124A1E21082002F078FD08B102F08B
:104CD00031FE02F0D9FC0E490E4BE02081F8230092
:104CE0001B684FF47A72B3FBF2F3013BB3F1807FA0
:104CF00008D24FF0E0225361002381F82300936132
:104D00000723136110BD00BF50BB0F009C9500200E
:104D100000ED00E0088000200148FFF759BF00BF08
:104D200000C001404FF0E023002110B51961FFF7EA
:104D3000F3FF154B154C4FF40032C3F8802003F1FC
:104D4000C04303F53C534FF48032C3F84823C3F803
:104D5000082301225A609A604FF080430220DA60F3
:104D60000B461F2BD5BF1A4603F01F024FF0A04180
:104D7000214602F5E0720133302B41F82200F0D1D8
:104D8000FFF725FF10BD00BF00E100E00003005069
:104D9000074B23F81010074B002282B0C3F81021F4
:104DA000D3F810210192019A01229A6002B0704753
:104DB0009497002000C001400A4A0B4B11681B6801
:104DC000B1FBF3F203FB1211B1EB530F4FEA5302A5
:104DD00088BF591A4F2359430020B1FBF2F189B221
:104DE000FFF7D6BF9C97002090970020024A1368D7
:104DF00001331360FFF7E0BF9C9700201B4A116846
:104E0000082823D8DFE800F013051322221A1E24F5
:104E10002A00174B40F6B83018604FF47F4303F078
:104E2000103323F08053994218BF13607047104B22
:104E30004FF4967018604FF47F03F0E70C4B642238
:104E40001A6070470A4B40F6B83018600B46E6E728
:104E5000074B40F6B8301860FF23E0E7044B4FF4EF
:104E6000967018604FF0FF13D9E700BF8C970020B1
:104E70009097002000F1804382B01A68002A14BF86
:104E80000120002004D000221A601B680193019BBE
:104E900002B070470F4A1378D3B903784FF08041BE
:104EA000C3F34003C1F88035037803F00103C1F870
:104EB0007835094B1968C90706D4E02183F8001337
:104EC0000121C3F880111960012304481370704751
:104ED00003487047AC97002000E100E00000AD0BF4
:104EE0000C00AD0B014B02681A607047A0970020C0
:104EF0004FF080434FF46072C3F804237047000002
:104F000010B54FF08043D3F80443620707D54FF440
:104F10008470FFF7AFFF10B11E4B1B689847A306C4
:104F200008D54FF48A70FFF7A5FF18B11A4B00207F
:104F30001B689847600608D54FF48C70FFF79AFFFE
:104F400018B1154B01201B689847210608D54FF46E
:104F50008E70FFF78FFF18B1104B00201B68984729
:104F6000E20508D54FF49070FFF784FF18B10B4BA2
:104F700001201B689847A3050AD54FF49270FFF7EC
:104F800079FF28B1054BBDE810401B680220184787
:104F900010BD00BFA8970020A4970020A097002074
:104FA000044AD2F80034DB07FBD50160BFF35F8F02
:104FB000704700BF00E001404FF080531A69B0FB1A
:104FC000F2F302FB130373B9084B0222C3F8042562
:104FD000C3F80805D3F80024D207FBD50022044803
:104FE000C3F8042570470348704700BF00E0014044
:104FF0000000AD0B0A00AD0BF8B50B4B15460122B6
:1050000006460F46C3F804250024A54204D1064BEA
:105010000022C3F80425F8BD57F8241006EB8400DD
:10502000FFF7BEFF0134F0E700E00140BFF34F8F10
:105030000549064BCA6802F4E0621343CB60BFF334
:105040004F8F00BFFDE700BF00ED00E00400FA0550
:105050004FF08053D3F83021082A03BFD3F834012E
:10506000B0FA80F0400900207047000008B54FF00A
:105070008053D3F83021082A4ED14FF080420021CE
:10508000C2F80C11C2F81011C2F8381502F54042EE
:10509000D3F80414C2F82015D3F80814C2F8241564
:1050A000D3F80C14C2F82815D3F81014C2F82C1534
:1050B000D3F81414C2F83015D3F81814C2F8341504
:1050C000D3F81C14C2F84015D3F82014C2F84415C4
:1050D000D3F82414C2F84815D3F82814C2F84C1594
:1050E000D3F82C14C2F85015D3F83014C2F8541564
:1050F000D3F83414C2F86015D3F83814C2F8641524
:10510000D3F83C14C2F86815D3F84014C2F86C15F3
:10511000D3F84434C2F87035FFF79AFF18B1484B02
:10512000484AC3F88C26FFF793FF18B1464BFB2281
:10513000C3F81825FFF78CFF58B14FF080424FF0AD
:105140008051D2F8E43ED1F8581261F30303C2F85B
:10515000E43EFFF77DFF20B13C4B4FF40072C3F8F3
:1051600040264FF08053D3F83031082B09D14FF04F
:105170008043D3F80024D10744BF6FF00102C3F885
:105180000024334AD2F8883043F47003C2F88830E0
:10519000BFF34F8FBFF36F8F4FF01023D3F80C2264
:1051A000D2071DD52B4B0122C3F80425D3F80024C8
:1051B000002AFBD04FF01022D2F80C3223F001036A
:1051C000C2F80C32234BD3F80024002AFBD0002273
:1051D000C3F80425D3F80024002AFBD0FFF726FFEC
:1051E000D3F80022002A03DBD3F80432002B22DAA2
:1051F000184B0122C3F80425D3F80024002AFBD061
:105200004FF010221221C2F80012D3F80024002A15
:10521000FBD04FF010231222C3F804220D4BD3F819
:105220000024002AFBD00022C3F80425D3F8002470
:10523000002AFBD0D2E7084B084A1A6008BD00BF1D
:10524000005000404881030000F000400090024000
:1052500000ED00E000E00140088000200090D00355
:1052600013DF704718DF7047064B10461A78012A83
:1052700003D1012904BF02221A7008B102F05ABBFF
:10528000704700BFF197002008B5FFF78FFA88B18B
:1052900011481C2101F082FF08B102F04BFB0F49BD
:1052A0000D4800231C2201F069FF98B1BDE80840B9
:1052B00002F040BB4FF47F20FFF77EFE0722074934
:1052C0004FF47F20FFF798FE054B1A78012A04BFA0
:1052D00002221A7008BD00BFF4970020B09700208A
:1052E000F197002070B5124C124D134ED4F80034D3
:1052F0007BB1C4F80056C4F80456C4F80856C4F884
:105300000C56C4F81056C4F81456C4F81856C4F80D
:105310001C5602F0E1FA05F090FF20B104F0AEFD5A
:10532000002005F0B7F93378023B022BDED870BDC0
:10533000000001403546526EF197002013B54FF43E
:105340004053124A596891420CBF9C684FF48054F4
:1053500001A800F09FF92368013302D1636801338B
:1053600011D0019B1A88012A0DD1588820B1996863
:105370000022204602F026FB019B5B881B1A584244
:10538000584102B010BD0020FBE700BFDBE5B15182
:1053900084B02DE9F34108AC84E80F009DF820802B
:1053A000BDF8227001A80E4615461C4600F072F9A1
:1053B000B8F1060F10D8DFE808F004143325584977
:1053C0006100304B0122FF215F809C601A80998030
:1053D0002D4B1A70FFF758FF02B0BDE8F04104B042
:1053E0007047284B721922449A60A5221A80C3E99B
:1053F0000365FF229A800C9A5F805C619A61224B60
:105400000122E6E7019A1F4B1188198051889268A2
:105410009A60AA22C3E9036559809A805C61EEE72D
:10542000019A184B1188A5290AD100229A60FF22FF
:105430001A60FF229A800022C3E903225A61DEE744
:1054400019805188926859809A60F2E7FFF7AEF9A7
:1054500040B100F08DFD08B102F06CFA0A4B032256
:105460001A70B9E700F00EFAF5E7064B00229A60D1
:10547000FF221A60019A92889A80ABE7024B0422BD
:10548000EEE700BFB0970020F197002000B50C4B6D
:105490001B7889B063B90B4B1B786BB905238DF86A
:1054A0000C30079B009303AB0FCBFFF771FF03E0BA
:1054B00004F0DEFA0028EED009B05DF804FB00BF6E
:1054C000F0970020CC9700201FB50023CDE90233D0
:1054D000074B019301F022FE30B906494FF47F23B8
:1054E00001A84B6001F038FE05B05DF804FB00BF79
:1054F00069520F00F497002070B505460E460AB1B8
:1055000080F00102154B02F001021A7000F0A8FFB2
:10551000044628B935B100F087FC0446FFF7E2FEE7
:10552000204670BDBEB10E4B0E4A0F481D70294675
:1055300002F0DAF84FF400444FF4FA7029464FF4C1
:105540007A720023E6FB040106F06EF92A46014652
:10555000064802F0DBF800F071F9DEE7F097002072
:10556000CC9700208D540F0068BB0F00D09700200F
:105570001FB5134B4FF0FF32C3F88020C3F88021D2
:105580004FF440530F4A596891420DD19C68204610
:10559000FFF766FE10B14FF000531C60204604B0C8
:1055A000BDE8104000F09AB80023CDE902334FF473
:1055B000805406236846CDE90034FFF753FEE9E73F
:1055C00000E100E0DBE5B15107B501A800F062F8A9
:1055D000019B1A88A52A07D09888A0F1AA035842EF
:1055E000584103B05DF804FB0120FAE710B501F063
:1055F0004FF9A8B10E4B0F4843F00103984701F053
:10560000B1F808B102F096F901F042F908B102F0E0
:1056100091F901F0F3F8044638B102F08BF904E097
:1056200001F010F904460028E4D1204610BD00BF67
:1056300060BB0F0000A8610000B589B003AB142265
:1056400000211846FEF758FE02228DF80C20002299
:1056500000920FC8FFF79CFEFFF744FE002009B040
:105660005DF804FB13B5044601A800F013F8019B94
:105670001A8822805A8862809A68A2609A88A280DA
:10568000DA68E2601A6922615A6962619B69A36102
:1056900002B010BD014B0360704700BF00F00F0067
:1056A000F0B50346186880F308885868FF2464B290
:1056B000EFF30585002D01D1A64600472546064695
:1056C00021273FBAF0B40024002500260027F0B4BB
:1056D000F92040B2004700BFF0BD00BFFFF7E0BFB8
:1056E000F7B500230DF1020101A8ADF802300193D6
:1056F00002F0A2FD034600BB019805785DB3184A8D
:1057000092F83010032928D00C2707FB03F4161950
:105710001159E1B992F8303015510133DBB282F8FA
:105720003030BDF802300F4A04309B08013BB060B6
:105730000846736002F066F80346019828B123B169
:1057400002F096FD08B102F0F5F803B0F0BD0133A8
:10575000042BDAD1F1E70723EFE70423EDE700BFDD
:10576000FC970020AD570F00084609B102F0E2B8DF
:105770007047000010B50C2343430B4AD418D1588E
:10578000A06879B192F830100139C9B282F83010AE
:1057900004380021C4E90111D15002F069FD08B1BB
:1057A00002F0C8F8002010BDFC970020214B70B516
:1057B0000122214E1A7096F8303003B970BD1E4C8C
:1057C0000025236883B1013B042B07D8DFE803F0F1
:1057D0001C0612032800204600F0D4FEE8B2FFF7B2
:1057E000C9FF08B102F0A6F80135042D04F10C043C
:1057F000E7D1E0E7A3686360204600F067FE002879
:10580000ECD002F097F8E9E7204600F043FF00F003
:105810001FFF08B102F08EF80520FFF7EFFADDE771
:1058200000F064FF00F082FFBDE870400620FFF743
:10583000E5BA00BFCC970020FC97002008B50E4BBE
:10584000002283F8302004210139C3E901221A60C3
:1058500003F10C03F8D1094800F032FE02F084FC99
:1058600008B102F067F8064802F06AFC08B102F0DD
:1058700061F8002008BD00BFFC97002069570F00A9
:10588000E1560F0008B50020FFF774FF0120FFF775
:1058900071FF0220FFF76EFF0320FFF76BFFBDE8EB
:1058A000084002F0A9BC006870476CDF70476DDFEC
:1058B00070476EDF70476FDF704772DF704773DFCE
:1058C000704774DF704776DF704777DF70477ADFA5
:1058D00070477CDF70477FDF704786DF70478FDF60
:1058E000704790DF7047AFDF7047B0DF7047B1DFC0
:1058F0007047B2DF7047B5DF704764DF704766DF1F
:1059000070470C280AD8DFE800F0070909090909DF
:105910000B091409090F0D0001207047062070477C
:10592000032070470420704704290CBF052006207F
:1059300070470220704701F0FDBF10B504460846CD
:105940000321FFF7DEFF0246204601F05BF918B1A4
:10595000BDE8104001F0EEBF10BD00000346032B70
:1059600010B50846144620D0042B23D169B1124B40
:1059700018884FF6FF7398421CD01321FFF7A3FF3E
:10598000C0B1BDE8104001F0D5BF104602F078F874
:1059900008B101F0CFFF094B1B689C420AD10122DC
:1059A0000321074801F02EF9EAE70121FFF7A9FFDB
:1059B0000246F6E710BD00BF148000206898002062
:1059C000C0980020F8B50A4DAB889E181D2E1446CD
:1059D0000DDC2F68FE1802F1010C07F803C070708F
:1059E000B01C05F059FEAB8802331C44AC80F8BDF6
:1059F00050980020F0B54D4E347893B0002C40F014
:105A000091804B4D102221462846FEF775FC494BEC
:105A10002B60182221460CA8FEF76EFC01238DF89E
:105A2000303028230E93444B1B78002B7CD0434B03
:105A300002AC03F1100518685968224603C2083306
:105A4000AB421446F7D13E48102202A905F0BEFE33
:105A5000002869D03B483C4C04600121FFF729FF36
:105A600008B101F067FF364B06AA03F1100C174688
:105A700018685968154603C5083363452A46F7D1A7
:105A80002068A2880A903148A379ADF82C20002123
:105A900001228DF82E300760FFF70DFF08B101F0ED
:105AA00049FF03238DF8443004238DF8063041F27A
:105AB0003053ADF80830264B06AA9B798DF80A3092
:105AC0000DF1070102A8FFF718FF012210460DF1A2
:105AD0000601FFF777FF1F4805F0F2FC1D49C2B22F
:105AE0000920FFF76FFF102206A90620FFF76AFFC3
:105AF0000F4919480CAAFFF7E0FE08B101F01AFFA0
:105B0000154C042221780120FFF7DFFE08B101F0D7
:105B100011FF20780121FFF7D2FE08B101F00AFF42
:105B20000123337013B0F0BD0623BEE7AA9800200E
:105B300050980020309800206C980020E8BB0F009F
:105B400075980020649800206E98002060980020CE
:105B5000C09800206CBB0F000C800020F0B50446FC
:105B60000146B1B0A64801F081F82388262B3BD826
:105B70000F2B04D8012B00F0CC8031B0F0BD103BCE
:105B8000162BFAD801A252F823F000BF155C0F00C3
:105B9000235C0F007B5B0F00555C0F004F5D0F0017
:105BA0007B5B0F007B5B0F007B5B0F007B5B0F0061
:105BB0007B5B0F006B5D0F007B5B0F007B5B0F005F
:105BC0007B5B0F007B5B0F007B5B0F007B5B0F0041
:105BD000DD5D0F007B5B0F00CF5D0F007B5B0F0077
:105BE0007B5B0F00D55C0F00513B9AB2052AC4D8ED
:105BF000052BC2D801A252F823F000BF1F5D0F0091
:105C00006B5D0F007B5B0F007B5B0F00EF5D0F0098
:105C1000BB5C0F007B4BA2881A807B4B00221A7062
:105C2000ABE78023774CADF82430784B20883222C4
:105C30001A6010A9012309AAFFF75BFE08B101F061
:105C400079FE734B1B780BB9FFF7D4FE4FF6FF7349
:105C5000238092E76F4B03AC9A79186899888DF886
:105C600022200790DA1DADF8201017332646106861
:105C70005168254603C508329A422C46F7D1664B37
:105C800009AA03F11807154618685968144603C491
:105C90000833BB422246F7D11868206059485F4A52
:105CA000008810AB8521CDE91456FFF714FE0028BB
:105CB0003FF463AF01F03EFE5FE7A379002B7FF472
:105CC0005CAF504B13211888FFF7FDFD00283FF40F
:105CD00054AF77E0237A012B7FF44FAF4A4B002279
:105CE0001A704A4B19680139196069B910AB14224E
:105CF0001846FEF701FB05228DF84020149A009209
:105D00000FC8FFF745FB38E731B0BDE8F040FFF7BB
:105D100071BE3C4B00211888FFF7F1FDD6E7A3794F
:105D2000002B3FF42AAFA27B043A022A3FF625AFAC
:105D3000022B18BF01238DF840304FF4C173ADF82A
:105D40004430304B10A91888FFF7CFFDAFE7314A38
:105D5000258A508D02F118010023854218BF19468B
:105D60000732A088FFF7B9FDB0E7264C20884FF630
:105D7000FF75A84225D02A4B1B78EBB12949012396
:105D80000822FFF7B4FDE8B9024601460223208845
:105D9000FFF7ADFDB0B920882A460C21FFF7A3FD1F
:105DA000A0F54053023B012B7FF6E7AE08283FF4F5
:105DB000E4AE11288AD1E0E61A461946FFF797FDAE
:105DC00084E7082031B0BDE8F04001F0B3BD0D4BD1
:105DD000002218881146FFF784FD77E70023ADF80D
:105DE0004030084B10A91888FFF779FDC5E6E18817
:105DF000044B1729188828BF1721FFF77CFD65E79A
:105E0000C098002014800020AA9800201080002054
:105E1000AC9800206E98002086980020F098002012
:105E20006C980020A298002030B5434A43480023D4
:105E30001370434A95B0137000F042FB01F0E0FD8F
:105E40000446002861D13F48FEF7C6FB00285FD119
:105E50003D4B01221A7011233C488DF8043005F0A7
:105E60002FFB3A4982B201A8FFF733FD08B101F0D8
:105E700061FD0822002104A8FEF73EFA344A4FF0E3
:105E8000C87304A8CDE90423FFF721FD08B101F090
:105E900051FD00210C2201A8FEF72EFA0823ADF8CF
:105EA00004302C4B02932C482C4B039301A900F097
:105EB0002DFD08B101F03EFD294D4022002104A82E
:105EC000FEF71AFA284605F0FBFA0595254DADF8C0
:105ED0001000284605F0F4FA0795234DADF8180098
:105EE000284605F0EDFA1123ADF8300004A8ADF80E
:105EF0004C300D9500F0CEFF1C4B30221A7007225B
:105F00005A7010229A70FFF775FD204615B030BD0B
:105F100004A8FFF7CCFC08B101F00CFD9DF811308E
:105F200004A801338DF81130FFF7BFFC002892D090
:105F300001F000FD8FE700BFAC9800205D590F0015
:105F4000BD9800206E9800206C9800206CBB0F005C
:105F500008001800C15F0F00C098002037590F00DB
:105F600073BB0F007EBB0F008DBB0F00F0980020AD
:105F700010B50F4B01221A700E4B18884FF6FF73A5
:105F8000984207D01321FFF79EFC08B101F0D2FC24
:105F9000002010BD084C2378002BF9D0074B18784F
:105FA000FFF78FFC08B101F0C5FC00232370EFE779
:105FB000AC98002014800020AA9800200C800020BB
:105FC000F0B50B7889B005460C46092B35D8DFE8CB
:105FD00013F02D00360041000A00190026000701C9
:105FE00010014400150100F081FB0421FFF789FC3A
:105FF0000246284600F006FEF8B109B0BDE8F040C0
:1060000001F098BCFFF7B4FF08B101F093FC00F079
:106010008DFB90B109B0BDE8F04000F095BBFFF7F3
:10602000A7FF0028F6D001F085FCF3E7764B0122AC
:106030001A704B681A78754B1A7009B0F0BD724B24
:1060400002261E704B681B78012BF6D100F000FB76
:106050003146CBE76C4B0322EEE70520FEF7CEFE80
:10606000694B1E78022E37D0032E59D0012EE4D171
:1060700004AB102218460021FEF73EF9634A237A4A
:1060800012788DF81020002203920C2B4FF003029F
:10609000CDE9012008D03146284600F0B3FD0028A4
:1060A000CBD001F047FCC8E763681846FFF7FBFB5D
:1060B0000590181DFFF7F7FB069003F10800FFF7A6
:1060C000F2FB079001A800F001FA0028B5D0314694
:1060D000FFF717FC0246DFE7237A13F0030011D025
:1060E000C0F104021A44D2B219464FF0000C0E4619
:1060F00001316768C9B2914207F806C0F7D11B1A8F
:10610000043323720123049363680693237A04A85B
:106110009B08059300F0BEFA00288ED00221D7E735
:10612000207A830702D03246314662E7384E01902A
:10613000314601F07BFC014618B12846FFF7FDFB14
:106140007BE76168019A306805F0A6FA019801F0D2
:10615000D3FC01460028F0D101A9304601F0DCFC57
:1061600001460028E9D104230493019B9B08059371
:1061700004A83368069300F005FA074640B9254A9B
:10618000237A11680B441360234B32681A6054E77A
:1061900009281BD11F4B217A1A68114419601F4B23
:1061A0001B78002B3FF449AF1D4C2388013B9BB269
:1061B0002380002B7FF441AF284600F0E9FC08B1B2
:1061C00001F0B8FB174B1B88238036E7306801F0DD
:1061D00057FC014610B12846FFF7AFFB3946ACE744
:1061E0000E4B01221A700F4A8B8813800C4A1380C1
:1061F00023E70A4A002313700A4AF8E7054B196897
:1062000000F08AFCF8E600BFBD980020BC98002092
:10621000B0980020B898002068980020AB98002023
:10622000B4980020B698002018DF70470129F8B50F
:106230000D4614461E4607D0032912D00CB3204643
:10624000BDE8F84001F076BB0E4B1B78052BF5D16D
:106250000D4B1B68002BF1D0324621460420984795
:10626000ECE7084F3B78022BE8D1084B5B68984776
:10627000054B3D701B68002BE0D032462146284676
:10628000EDE7F8BD6C99002004990020F8980020F3
:1062900030B589B003AC142200212046FEF72CF85B
:1062A000094B1B88ADF80E30084BDB6806930025C0
:1062B000079B8DF80C50009394E80F00FFF768F8E7
:1062C000284609B030BD00BF14990020589900201D
:1062D00000B589B003238DF80C300A4B1B88ADF84C
:1062E0000E30094B5A6804929A68DB680693079B44
:1062F0000093059203AB0FCBFFF74AF8002009B0DB
:106300005DF804FB149900205899002000B589B06D
:1063100001238DF80C300F4B0F4A1B88ADF80E305F
:106320004FF440535968914208BF9A680B4B596823
:10633000049118BF4FF480529968DB680693059169
:10634000009203AB0FCBFFF723F8002009B05DF8F4
:1063500004FB00BF14990020DBE5B15158990020DF
:1063600000B589B003AB142200211846FDF7C4FF25
:1063700004228DF80C20002200920FC8FFF708F8C5
:1063800009B05DF804FB0000194BF7B5194D1D600D
:10639000194B02221A70FEF709FA184B044648B14D
:1063A0001968284600F0FAFEF8B103B0BDE8F040E5
:1063B00001F0C0BA1D68124F013D2D0B01354FF49D
:1063C00040567368BB420CBFB0684FF4805000EB7E
:1063D00004300134FEF7F0FDA542F2D80023054851
:1063E00000931A460321FFF721FF03B0F0BD00BF61
:1063F000089900200C9900206C99002068990020D1
:10640000DBE5B151F0B51F4685B00323CDE900307F
:106410000546960868460C4602910396FFF704FF6E
:10642000E0B1B4F5805F11D801236846CDE90035AD
:10643000CDE90246FFF7F8FE80B903236846CDE9AF
:106440000035CDE90246FFF7EFFE07E03B463A464E
:10645000E11BE81BFFF7D6FF0028E5D005B0F0BD33
:106460001FB5104B0193104B104900241C70104BAA
:1064700001A8CDE902441C8000F06EFE70B94FF413
:1064800040530C4A59689142084A0CBF9B684FF42C
:1064900080535360084B00221A600124074B1C7084
:1064A00004B010BD2D620F00169900200C99002039
:1064B00014990020DBE5B151709900206C990020FF
:1064C000014B1860704700BF0499002038B543683D
:1064D000224C0FCB84E80F002378590701D59A0787
:1064E00035D16068850732D1A26891072FD1E16864
:1064F00011F003042BD1104408441949B2F5204F80
:10650000086026D84FF44052164955688D420ABF9C
:1065100092684FF46922C2F56A22904219D8DA07CC
:1065200013D4114A13F0020F104B08BF1346104A40
:10653000104911601049C2E90113104B1B78012B5F
:1065400009D1FFF721FF204638BD0D4BEFE70624A8
:10655000F9E70C24F7E70824F5E700BF5899002075
:1065600068990020DBE5B15191620F00D1620F0004
:10657000F898002089630F0061630F006C99002078
:106580000D630F002DE9F74300284FD08668B3074D
:106590004ED12A4B1B78052B4CD1294D42682B68D4
:1065A000DFF8A49003EB82039400D9F80020934213
:1065B00006D94FF0FF332B600C2003B0BDE8F08309
:1065C000FEF7F4F8DFF88480A0B12B68D8F800005B
:1065D0002246314600F0D2FD0028EED12B681C4443
:1065E000D9F800302C609C4226D1FEF7DFF8D0B1FC
:1065F0000020E2E74FF44053124A59682F68914255
:106600000CBF98684FF4805022463146384400232E
:10661000FEF76AF80094D8F8000033460022012102
:10662000FFF704FEDAE7FEF741F8E1E70E20C4E7E2
:106630001020C2E70820C0E70920BEE76C990020BF
:1066400070990020DBE5B15168990020089900207D
:1066500070B50B4B1D6885B90A4E3378042B0CD1ED
:10666000094C0A4B21781A780948FDF7D7FF10B971
:106670000523337070BD2570FCE70820FAE700BFE2
:10668000709900206C9900201699002058990020DC
:1066900017990020F8B5114B1A78032A04D0042A60
:1066A00004D008242046F8BD04221A700C4B1C6844
:1066B000002CF6D10B4D43682F789E0007EB830327
:1066C000402B09D8816808483246384404F0E4FF7A
:1066D0002B7833442B70E5E70924E3E76C9900201D
:1066E00070990020169900201799002010B50B4CC6
:1066F0002378052B10D10A4B0A4A1B68116899426E
:106700000AD106232370084B1B685868FDF7C0FFA9
:1067100008B90723237010BD0820FCE76C990020FE
:10672000689900207099002008990020044B1B787C
:10673000072B02D1034B9B6818470820704700BF06
:106740006C990020F898002000B589B006238DF8D8
:106750000C30079B009303AB0FCBFEF719FE09B07B
:106760005DF804FBF0B58DB005A8FEF77BFF089C33
:10677000002C3ED00B9E04F58053B3422DD91E4D04
:10678000A6F5805305EA53054FF440539B689C429D
:106790000BD869002B46A4EB450201F5805106EBAE
:1067A0004500FFF72FFE0DB0F0BD05F58053012722
:1067B00001A8CDE90173CDE90337FFF735FD0028C6
:1067C000F1D14FF4805301A8CDE90233019704972A
:1067D000FFF72AFD0028E6D1DBE70123CDE90136EA
:1067E000A4084FF4805301A803930494FFF71CFD01
:1067F000D9E72046D7E700BF00F0FFFF00B58DB016
:1068000005A8FEF72FFF099880B1089B8BB94FF4BC
:1068100040530B4A596891420ED19B688008002270
:10682000039001A8CDE90123FFF7FEFC0DB05DF850
:1068300004FB0B9A1344F1E74FF48053EEE700BFDB
:10684000DBE5B15100B58DB005A8FEF70BFF099847
:1068500098B1089BA3B94FF440530C4A5968914230
:1068600011D19B680393800803214FF47422049094
:1068700001A8CDE90112FFF7D7FC0DB05DF804FBCC
:106880000B9A1344EEE74FF48053EBE7DBE5B1518D
:1068900010B58CB005A8FEF7E5FE0898B8B10B9CC2
:1068A00000F58053A34214D94FF440539B6898429B
:1068B0001BD80F4BA4F5805203EA52035900A0EBFA
:1068C000430201F5805104EB4300FFF79BFD0CB040
:1068D00010BD800803224FF48053049001A8CDE935
:1068E00001230394FFF7A0FCF1E70E20EFE700BFC0
:1068F00000F0FFFFA8DF7047AADF7047ADDF7047E9
:10690000AEDF7047B0DF704762DF70472DE9F047B8
:106910000E4694B00546002800F0F880002900F0EB
:10692000F5804B68002B00F0F1804FF6FF73038079
:10693000774B04AA03F1100C1746186859681446DF
:1069400003C4083363452246F7D141F230530DF1B9
:106950000A0138460293FFF7D7FF0446002840F0AB
:10696000D1802A1D02A90120FFF7C4FF0446002898
:1069700040F0C8809DF80A30AB7101461C220DA87A
:10698000FDF7BAFC9DF834300E9443F004038DF803
:10699000343001AFAB798DF80E30214641F23253DD
:1069A00003223846CDE91044CDE91244ADF80C304D
:1069B000FDF7A2FC9DF8063023F01F0343F003030C
:1069C000214614224FF4885A08A88DF80630ADF8F5
:1069D00004A00DF10C08FDF78FFC4FF01409A888F6
:1069E0000A9405F1080308AA0DA90C94CDE90887BB
:1069F000ADF82C90FFF780FF0446002840F082801D
:106A000001461C220DA8FDF777FC9DF834300E944A
:106A100023F0180343F018038DF83430AB798DF868
:106A20000E30214641F2315303223846CDE910445D
:106A3000CDE91244ADF80C30FDF75EFC9DF8063050
:106A4000ADF804A023F01F0343F0130321464A4688
:106A500008A88DF80630FDF74FFC1723ADF82C3051
:106A6000A8880A9405F1100308AA0DA90C94CDE991
:106A70000887FFF741FF0446002843D101461C2246
:106A80000DA8FDF739FC9DF834300E9443F0020355
:106A90008DF83430AB798DF80E30214641F2345305
:106AA00003223846CDE91044CDE91244ADF80C304C
:106AB000FDF722FC1123ADF804309DF8063023F0D9
:106AC0001F0343F0030321464A4608A88DF8063009
:106AD000FDF712FC02230A93ADF82C30A8880C961F
:106AE00005F1200308AA0DA9CDE90887FFF704FFE7
:106AF000044638B97368AB62B36803B1EB62054B07
:106B000001221A70204614B0BDE8F0870E24F9E780
:106B1000F8BB0F007B99002070B5054686B070B3B6
:106B200002884FF6FF739A422BD0174B1B7843B362
:106B3000164C1022080AE170207121FA02F0090EA9
:106B4000072301266071A17102A800216370ADF8CE
:106B500006302270A670FDF7CFFB2B8AADF8083007
:106B60000023ADF80C3028888DF80A600DF106037B
:106B700002A9CDE90434FFF7C3FE06B070BD0E20B4
:106B8000FBE70820F9E700BF7B99002074990020FB
:106B900030B5044687B060B302884FF6FF739A425F
:106BA00029D0164B1B7833B3154D11232B700B0ACC
:106BB0006970AB700B0C090EEB7029710523002175
:106BC000102202A8ADF80630FDF796FB238AADF837
:106BD000083001238DF80A300023ADF80C302088EE
:106BE0000DF1060302A9CDE90435FFF789FE07B0D0
:106BF00030BD0E20FBE70820F9E700BF7B9900209D
:106C00007499002030B5134687B0044630B300882D
:106C10004FF6FF72904223D0124A127802B3124DFF
:106C2000697003211022ADF8061002A80021AB7094
:106C30002A70FDF761FB238AADF8083001238DF837
:106C40000A300023ADF80C3020880DF1060302A9AC
:106C5000CDE90435FFF754FE07B030BD0E20FBE749
:106C60000820F9E77B9900207499002070B50D4643
:106C700088B0044650B149B1826A3AB10B88502BB2
:106C800049D005D8102B43D0112B54D008B070BD7B
:106C9000512BFBD18E79022EF8D10A89038A9A42B0
:106CA000F4D18B7B043B022BF0D99DF816308DF884
:106CB000106043F001038DF816300B8AADF81830E0
:106CC0004B8AADF81A30082201F1140301A8002103
:106CD0000793FDF711FBA18A2088019601AACDF840
:106CE00008D0FFF70BFE48B3E36A03B1984740F2C0
:106CF000FD132088ADF8143004A9FFF703FE002827
:106D0000C4D0E36A002BC1D008B0BDE8704018477A
:106D10008B882380BAE7C98803899942B6D10823B2
:106D20008DF81030123535F8023C8DF81830059585
:106D300004A99047AAE74FF6FF73EAE7BDF80030D1
:106D40002088DB07D3D5002604A9ADF81460FFF72F
:106D5000D9FD0028D5D1297D4B1E072B3ED8DFE871
:106D600003F004192226282A3B2C6B8A8DF8046034
:106D7000012B05D8062201212046FFF743FFBEE77D
:106D8000012315358DF80C300295A36A01A9204620
:106D900098477BE76A8A01239A428DF80430F0D83D
:106DA00006220221E8E702238DF80430EDE70323F1
:106DB000FAE70423F8E70523F6E76B8A022B02D8EB
:106DC00003220821D8E7B5F81530ADF80830002BBC
:106DD00014BF06230723E7E70923E5E70322CBE7F0
:106DE000A8DF7047AADF70472DE9F04180468EB0DA
:106DF00015461F460E4611B9084600F09BFD15B911
:106E0000284600F097FD1C220DEB02000021FDF743
:106E100073FA9DF81C30ADF80480002443F002039F
:106E20008DF81C3021460123032268468DF8063078
:106E3000CDE90A44CDE90C440894FDF75DFA3B78AE
:106E40008DF800307B788DF801309DF8023023F00A
:106E50001F0343F002032146142202A88DF80230DA
:106E6000FDF74AFA0A48CDF80CD001AB029302AA0A
:106E7000149B0088ADF8105007A9ADF81240ADF88A
:106E800014500696FFF7AEFF0EB0BDE8F08100BFCC
:106E90009C99002030B587B041F60A032D4AADF821
:106EA0000C30044603A901208DF80E00FFF798FF6F
:106EB0000546D8B92288E2B922894AB1264B009307
:106EC000E16804F13C0342F62420FFF78DFFD8B9B6
:106ED000228C4AB1214B0093616A04F13C0342F6D3
:106EE0002620FFF781FF78B9A36B7BB9284607B04E
:106EF00030BD1B4B0093616804F13C0342F629202E
:106F0000FFF772FF0028D7D00546EFE71A788DF813
:106F100010205A888DF81120120A8DF812209A88B4
:106F2000DB888DF815301B0A8DF813208DF816308C
:106F3000120A0C4B8DF814200093072204F13C0335
:106F400004A942F65020FFF74FFF002818BF05465E
:106F5000CCE700BF9C9900208C99002084990020E8
:106F6000949900207C99002029DF704728DF704722
:106F7000064B182202FB003000230422C0E9042340
:106F8000037183608361C360704700BFB8990020BC
:106F900013B502460846C96843680093044B53F88A
:106FA0002140436910F80C1BA04702B010BD00BF80
:106FB000A899002038B5194C2378182202FB034306
:106FC0001A795869012A03D0032A1AD00F2038BD34
:106FD000134A996915689A68DB68A2EB0532B2F525
:106FE000805F184401EB053100EB053034BF920897
:106FF0004FF48062FFF7B8FF0028E8D10123A370A7
:10700000E5E74FF080531B699BB2B0FBF3F0044BF4
:107010001B681844FFF7AAFFEEE700BFB8990020ED
:10702000A099002070B5134D6C780A2C1FD02E78D3
:107030003444E4B2092C84BF0A3CE4B2182606FBAF
:107040000454A261207103C9A360049BE360AB7880
:1070500004F1100282E8030023B100206B780133B1
:107060006B7070BDFFF7A6FF1128F7D1F5E704207C
:10707000F7E700BFB899002038B5264CA3782BB1AC
:1070800000230228A37002D003283BD038BD257806
:107090002149182202FB05420B6892680133B2EBCA
:1070A000033F0B6019D86B1CDBB262780020092B00
:1070B00008604FF0180188BFA5F1090302F1FF3203
:1070C00001FB0541D2B288BFDBB20431627023708C
:1070D000FFF75EFF2846FFF74BFF6378002BD5D004
:1070E000A378002BD2D1FFF765FF0028CED011285E
:1070F000CCD02178182303FB01410431BDE838408E
:10710000FFF746BF2378182202FB034104310D200C
:10711000F4E700BFB8990020A099002008B50A4BF9
:1071200000211960094B1980997008460131FFF759
:107130001FFF0A29F9D1064B00201860054BC3E94F
:107140000000C3E9020008BDA0990020B899002002
:10715000A4990020A8990020064A03461068042834
:1071600007D00860411C11601A68034B43F82020C7
:1071700000207047A4990020A899002013B55C183E
:107180000C43A40708D1009313460A460146012088
:10719000FFF748FF02B010BD1020FBE707B5002243
:1071A0000B46009201460320FFF73CFF03B05DF859
:1071B00004FB0000094B5A7899780132D2B291420F
:1071C00008BF0022197891421FBF02705A78182117
:1071D00001FB023014BF043000207047C09A002029
:1071E000082910B5044602D0002000F0A3FBD4E922
:1071F0000030BDE81040184773B5054600240DF176
:1072000007000E468DF8074000F0A2FB0DF10600C6
:10721000FFF7D0FF90B10670094B9DF8062045603E
:107220005A709DF8070000F0B7FB24B9054B4FF4E6
:107230008012C3F80021204602B070BD0424F0E79C
:10724000C09A002000E100E0204B21491A682F235A
:1072500000BF00BF00BF00BF00BF00BF00BF00BF36
:107260008A422FD000BF00BF00BF00BF00BF00BFD9
:1072700000BF00BF00BF00BF00BF00BF00BF00BF16
:1072800000BF00BF00BF00BF00BF00BF00BF00BF06
:1072900000BF00BF00BF00BF00BF00BF00BF00BFF6
:1072A00000BF00BF00BF00BF00BF00BF00BF00BFE6
:1072B00000BF00BF00BF00BF00BF00BF00BF00BFD6
:1072C00000BF00BF013BC3D1704700BF0880002052
:1072D0000024F4000C4B0D484FF4003210B5C3F8F5
:1072E000802001244FF48033C0F84833C0F80833BD
:1072F0004460FFF7A9FF064B846000201860FFF789
:10730000A3FF044B187010BD00E100E00010014025
:10731000B89A0020AD9A00202DE9F3412549264B6B
:107320000025C1F84051C1F84451C1F84851C1F895
:107330004C51C1F80051C1F804511B68002B34D0E6
:10734000D1F804451D49DFF888800968641A24F0E3
:107350007F442F461A68A24212D8A41A15441A7CF8
:10736000DE6962B15A691F7400929B6901934246BB
:107370000821684600F046FA08B100F0DBFABEB911
:107380000F4A104B11781B788B4205D10133DBB2C9
:10739000022B08BF0023137012780B4B43F82250C6
:1073A0000A4B4FF48012C3F8002102B0BDE8F0810F
:1073B0003346CFE700100140BC9A0020B89A002065
:1073C000AE9A0020AF9A0020B09A002000E100E0C1
:1073D000E1710F002DE9F74FA049A14A0B7812780F
:1073E000A04C9A423CD00133DBB2022B08BF0023F1
:1073F0009D4A0B709D49176851F823003B1823F0F4
:107400007F4313600022236816461546944613B93D
:1074100042B1236006E0196881420FD902B12360AE
:10742000091A19604FF0010A2368DFF858820093A7
:107430004FF00009BEB94FF0180B45E0401A0D445B
:10744000D968D3F81CE0C3F800C031B17A1922F032
:107450007F42C3E90121DE611E4673460122D6E761
:107460000026B246E0E73046F6697F4B45681A6869
:107470007F4F8368A91A21F07F41B94200F2CA8088
:107480000B4401210174216803600022C0E901223C
:10749000C261002940F0C6802060CBE798F8020066
:1074A00025684B1CDBB20BFB0181984208BF00230F
:1074B00088F800300B798868022B67D0032B00F026
:1074C0009380012B00F0938098F8001098F8013019
:1074D0008B42E3D12368B9F1000F05D1009A9A429B
:1074E00002D1BAF1000F42D0002B00F0B480D3F8E3
:1074F0000090604C5C4BD4F8046518685E4F351AF8
:107500003B7825F07F4503359BB94FF48033C4F8B1
:107510004433C4F80433594B4FF400324FF00108A0
:10752000C3F880211A60C4F80080FFF78DFE87F849
:107530000080A9452CBF4844401920F07F40C4F882
:107540004005D4F804359B1B23F07F43801B033395
:1075500020F07F4083420AD9D4F80435C4F840357E
:10756000FFF772FE454B4FF40032C3F80021444B45
:1075700000221A7003B0BDE8F08FB84209D0394636
:10758000FF69002FF9D1002303749DE72F46294698
:10759000F7E7884211D1EB69236073B9DFF8D4E0D3
:1075A00001910122CEF80820DFF8BCE0CEF80030CF
:1075B000334B1A70FFF748FE01993B68FF69CF61B2
:1075C00017B13A6813443B602368AB4218BF4FF0D1
:1075D0000109D8E72974ED690123002DFAD1002BA8
:1075E0003FF472AF25606FE700231946F5E7057C8D
:1075F000002D7FF469AFCA6842600B6983604B69F4
:10760000C3608B6983611E4B1B78002B18BF2A4611
:1076100042602AE7521B22F07F429A4234BF9B1AF3
:1076200000232EE70A689A4213D3D21A0A60C16176
:1076300032E75B1BD56911463DB12A461568AB425E
:10764000F7D8ED1A156015460A460360C561D0618A
:10765000F0E60A46F2E7FFF73DFE88E7AF9A002022
:10766000AE9A0020BC9A0020B89A0020B09A002060
:10767000FEFF7F0000100140AD9A002000E100E015
:10768000AC9A0020C09A002008B5FFF723FE104BEB
:1076900000200B2218809A700E4B18600E4B187049
:1076A0000E4B18700E4B4FF48012E021C3F880216E
:1076B00083F814131A6002F18042A2F56F22C2F817
:1076C000080583F81113074BD2F804251A6008BD8A
:1076D000C09A0020BC9A0020AF9A0020AE9A0020E9
:1076E00000E100E0B89A0020074B9B784BB132B123
:1076F00028B10368187C20B959745A617047072073
:1077000070470820704700BFC09A00202DE9F7435A
:10771000DFF8848098F8023005460E461746ABB372
:10772000A0B3042930D9436983B3437C0024012BDF
:107730000DF107000CBF8946A1468DF8074000F007
:1077400007F90DF10600FFF735FDD8B101230370ED
:107750000F4B4560D3F80435C0E90497C0E9023601
:107760009DF8063088F801309DF8070000F014F904
:1077700024B9084B4FF48012C3F80021204603B00F
:10778000BDE8F0830424EFE70724F7E70824F5E7D2
:107790000010014000E100E0C09A0020064A927803
:1077A0003AB130B1426922B1002202740221FFF7DE
:1077B00023BD0820704700BFC09A00204B1C30B585
:1077C000DB00044612F003009BB20DD1074D2A6086
:1077D0001A44074B1A60074B1870074B1870074B79
:1077E0001C80074B198030BD0720FCE7D89B002088
:1077F000D49B0020D09B0020D19B0020CE9B00205A
:10780000CC9B00202DE9F347DFF8C480B8F80030A6
:107810008B4206460D4617464DD300240DF1070056
:107820008DF8074000F094F8254B264A26481B782F
:10783000008892F800C084455FFA8CF138BF0131AE
:10784000DBB238BFCCB2A3422FD014781178CBB2C0
:10785000884286BF0133DBB20023E4B213709DF887
:10786000070000F099F84FF6FF739C4225D0DFF82F
:107870006490D9F800304FEAC40A43F8347003EB3F
:10788000C402AEB1A5B1114BB8F800001B682A467E
:1078900004FB0030314603F0FFFED9F800305344BA
:1078A0009D80002002B0BDE8F0874FF6FF74D6E758
:1078B00000239380F5E70920F4E70420F2E700BFF6
:1078C000D19B0020D09B0020CC9B0020D49B00208B
:1078D000CE9B0020D89B002070B5104C104D227814
:1078E0002B789A4200D170BD0E480F4A2378126857
:1078F00006880E4802EBC301006852F833208988DD
:1079000003FB060090470A4922780988D3B29142C6
:1079100086BF0133DBB200232370E0E7D19B002058
:10792000D09B0020CE9B0020D89B0020D49B002021
:10793000CC9B00201FB50021CDE9021001AA44F222
:107940000100ADF80410FCF726FF05B05DF804FB5C
:1079500070B5EFF3108672B60C4A9468012384B9AF
:1079600093600B4B0B4DD3F8801029401160C3F886
:107970008050D3F8841051604FF0FF32C3F8842058
:107980002346037006B962B670BD00BFDC9B0020C1
:1079900000E100E0FC06FFBD10B5084B9A685AB143
:1079A00050B9EFF3108172B6054A1C6814605C6828
:1079B0005460986001B962B610BD00BFDC9B002026
:1079C00000E100E003462AB110881A4619448A42B1
:1079D00003D170474FF6FF70F7E743BA12F8010B77
:1079E0009BB25840C0F3031343401BB283EA0333F6
:1079F0001BB2580100F4FF50434098B2E7E7000083
:107A0000064B074A00201870064B1A600822C3E98B
:107A10000120C3E90300C3E905007047E4AE00207C
:107A2000049C0020E89B00200020704730B50446ED
:107A3000E9B1124B5A6800200860D2B1B4F5167F44
:107A400019D8013A5A60DA681C680132DA601A699A
:107A50004FF4177505FB02440C60996901249440AA
:107A60000132214302F0070299611A6130BD0E20F4
:107A7000FCE70420FAE70C20F8E700BFE89B0020B1
:107A8000F0B51C498A6892B34D690E68AC1A04F0CF
:107A9000070423464FF4177707FB036C604510D1AA
:107AA000886901259D406840886100204E68D1F8B2
:107AB00018C04FF0010E73440025164403F007036D
:107AC0000AE0013303F007039D42E5D11020EDE702
:107AD0004AB1013A1C4601250EFA04F414EA0C0FCF
:107AE000A6EB0207F4D00DB1C1E90172F0BD04208C
:107AF000FCE700BFE89B0020064A13691268013BBF
:107B00004FF4177103F0070301FB0323C3F8580276
:107B100000207047E89B002030B5C0B1B9B10E4BD2
:107B2000DA68B2B1013ADA609A681C6801329A6088
:107B30005A694FF4177505FB024404600132D4F80A
:107B40005802086002F007025A61002030BD0E2082
:107B5000FCE70420FAE700BFE89B00203FB40C4993
:107B6000086890B10B4B1C687CB10B4A1568CDE9D5
:107B7000025000238DF804300B60136004AB13E94E
:107B80000700234604B030BC184704B030BC70472F
:107B9000E8AE002000AF0020F0AE0020DC2810B5D9
:107BA00009D0DD2810D0C02816D1FFF7D7FF0E4B23
:107BB0000E4A1A6010BD0E4A0E4B19681368581C05
:107BC0001060C022CA54F2E7094A0A4B19681368C8
:107BD000581C1060DB22F5E7064B054A196813684C
:107BE0005C1CC8541460E2E71C8000200D7C0F0070
:107BF000E8AE0020F0AE0020C02802BF014B024AD0
:107C00001A6070471C8000200D7C0F00C02810B443
:107C100009D0DB280BD0094B094A196813685C1C92
:107C2000C854146006E05DF8044BFFF797BF054B9E
:107C3000054A1A605DF8044B704700BFF0AE0020A3
:107C4000E8AE00201C8000209D7B0F0007B50122BC
:107C50008DF807000DF10701002002F05BFDB0FA7E
:107C600080F04009800003B05DF804FB10B5064ABF
:107C7000064C12682368D05CFFF7E8FF10B9236850
:107C80000133236010BD00BFFCAE0020F4AE002025
:107C900008B5C020FFF7DAFF28B9034B1B6813B9FA
:107CA000024B034A1A6008BDF4AE00201880002081
:107CB0006D7C0F0008B5DB20FFF7C8FF10B9024B41
:107CC000024A1A6008BD00BF18800020D17C0F0056
:107CD00010B50C4A0C4C12682368D35CC02B03D03F
:107CE000DB2B0DD0042010BDDC20FFF7AFFF0028F8
:107CF000F9D12368054A01332360054B1A60F2E786
:107D0000DD20F2E7FCAE0020F4AE00206D7C0F0019
:107D1000188000207FB5184C184D194E002002F035
:107D200099FC30B322689AB12968336899420FD21E
:107D3000012201A9002002F099FC10B94FF0FF3098
:107D400001E09DF804000F4BC0B21B689847E5E7BF
:107D50000D4B1B686BB10292084A02211268039214
:107D60008DF8041004AA12E9070004B0BDE87040C1
:107D7000184704B070BD00BFF0AE0020E8AE002090
:107D8000ECAE00201C80002000AF0020014B1860EA
:107D90000020704700AF0020034B1A780AB9012277
:107DA0001A700020704700BF04AF0020014B002074
:107DB0001870704704AF00202DE9F04F85B00028FF
:107DC0004ED0284F3B78012B06D0022B0CBF04204D
:107DD000082005B0BDE8F08F234CDFF89C90234EBF
:107DE000234DDFF89880DFF898A0DFF898B0C9F845
:107DF000001000232360022330603B70C5F8008030
:107E00002268D9F800309A4214D3C5F80080FFF7F1
:107E10003FFF18BB174B1B6801223A70F3B18DF876
:107E20000420326802922268039204AA12E9070031
:107E3000984713E0336822689A5CC02A03D022680E
:107E40009B5CDB2B04D12B68534508BFC5F800B001
:107E50002B689847042801D01128D1D10020B8E719
:107E60001020B6E704AF0020F4AE0020FCAE0020E6
:107E70001880002000AF0020F8AE0020917C0F0099
:107E80006D7C0F00B57C0F00054B064A1860064B51
:107E90001960064B00201860054B1A60704700BF40
:107EA000F0AE0020F97B0F00ECAE0020E8AE002021
:107EB0001C800020064B07481B68DB00DBB2002259
:107EC000037004215B4242708270C370FFF774BF7D
:107ED00044AF002005AF002010B52A4C024623789D
:107EE000012B11D0022B1DD00BBB02BB2648FFF784
:107EF00055FC08B1FFF71EFD244B1B68BBB1244A9B
:107F0000BDE8104010781847012A10D1214B19689C
:107F1000214B06311868FFF74FFF08B1FFF70AFD44
:107F200002230CE0022A1AD0032A01D052B110BD5C
:107F30001A4A1368013303F0070313600023237008
:107F40000022CCE7164B10481A6041F67F21FFF75C
:107F5000DDFB0028EBD0BDE81040FFF7EBBC104A7A
:107F60001368052B0AD0013313600A4B19680A4BBA
:107F7000BDE8104018680631FFF71EBF044B012210
:107F80001A70DBE754AF002014AF002050AF002080
:107F90000EAF002038AF00203CAF002040AF0020E3
:107FA00010AF0020F0B585B004AB03E907009DF8E1
:107FB00004000D461646032876D8DFE800F00802D4
:107FC000A8AB012005B0BDE8F040FFF785BF032A4C
:107FD000524C40F283804B7813F00F0269D00E2A86
:107FE0007CD1042E59D00A78500656D5110654D5A6
:107FF0001A44AB781A44EB781A4412F0FF024CD1C1
:10800000B71E39462846FFF7DDFCEB5B834244D1BF
:1080100043492A780B6802F00702D8B282422FD176
:10802000013303F007030B60FFF744FF3D4B0122D0
:1080300030461A70FFF760FD08B1FFF77BFC374947
:108040004FF41670FFF7F2FCB0B1042810D1364897
:108050000521FFF719FF08B1FFF76CFC334B1B68D4
:10806000002B59D04FF0000005B0BDE8F040184794
:108070000020FFF75FFCEAE720684FF41671E8E79D
:1080800020684FF41671FFF7FFFE08B1FFF752FCAE
:1080900005B0BDE8F040FFF70DBF20684FF4167142
:1080A000FFF7F2FE002837D005B0BDE8F040FFF73B
:1080B00041BC0A78897813440B44E9780B44DBB25D
:1080C00063B91B4B1B68013383EAD20313F0070328
:1080D00004D1184A03201370FFF7FEFE25681DB176
:1080E0004FF416712846DBE70C494FF41670FFF782
:1080F0009DFC18B920684FF41671D1E7042802D10D
:1081000009480521CCE72846FFF714FCF8E70648A4
:108110000521C5E70320C7E705B0F0BD48AF002043
:1081200044AF002034AF002009AF00204CAF002046
:1081300040AF00200EAF00200220FFF7CDBE0000B0
:10814000074B10B5044618600648FFF71FFE08B13C
:10815000FFF7F0FB002C0CBF0E20002010BD00BF6D
:108160004CAF0020A57F0F00184A1948002310B516
:108170001360184A1360184A1360184A1370184A9B
:108180001370184B184A01211960184B1960184BCD
:108190001970FFF7A9FA08B1032010BDFFF730FCF2
:1081A0000028FAD1FFF7F8FD0028F6D1114C4FF462
:1081B00016702146FFF73AFC0028EDD120684FF4F5
:1081C0001671BDE81040FFF75FBE00BF3CAF002056
:1081D00008BC0F0038AF002010AF002034AF0020E3
:1081E00054AF002044AF002039810F0040AF002081
:1081F0000EAF002048AF00200C4A08B500231360E2
:108200000B4A1360FFF710FC08B1FFF793FBFFF771
:10821000CDFD08B1FFF78EFB0648FFF7BFFA042833
:1082200002D10020FFF786FB002008BD50AF0020E0
:108230004CAF002014AF002037B50D46044698B16E
:1082400091B10A4B19780022019259B101A91A7013
:10825000FFF762FC019B063B2B80236804332360FD
:1082600003B030BD0420FBE70E20F9E734AF002057
:108270000438FFF705BC18DF70470000F0B51D4655
:10828000154B87B018680F4659681B7A03AC03C4B6
:108290002370124B18685968114B009301AC03C44A
:1082A0002046164603F00CF921460246384603F0F4
:1082B000F3F901A803F004F901A90246304603F0DE
:1082C000EBF9684603F0FCF869460246284603F0DD
:1082D000E3F907B0F0BD00BF9EBB0F00A7BB0F00C6
:1082E000312E30000120704710B51C460B781E2B34
:1082F00006D000232022052102F052FC204610BDAA
:108300000024FBE7F8B5069F14460D463A460021C7
:1083100018461E46FBF7F0FF7CB14FF0E023D3F880
:10832000F03DDB0700D500BE4FF0FF30F8BD28461A
:1083300000F0FAF9013504F50074BC4206EB0401C3
:10834000F5D32046F2E70000F8B50A4F0D461E4669
:108350000024069B9C4206EB040101D32046F8BD95
:108360003A46284600F0AEFA0028F7D0013504F569
:108370000074EEE758AF002030B5264D2A7A8DB054
:108380009AB107AC1422002120460625FBF7B4FF62
:108390008DF81C500B9B009394E80F00FCF7F8FF3E
:1083A0000620FCF72BFD0DB030BD2B68002BFAD05A
:1083B000194B197819B105201A70FCF71FFDD5E982
:1083C00000329A42EFD307AC142200212046FBF77B
:1083D00093FF6B7ADBB106234FF420424FF47421F4
:1083E0004FF460208DF81C3003F0F0F90028D1D054
:1083F0001022002103A8FBF77FFF4FF460224FF407
:10840000205303A8CDE90423FFF735FFC2E78DF819
:108410001C30BFE758AF002020800020024B0B60CB
:108420004FF4007313807047090101000120704769
:1084300000487047E9800020044B054A1878054B36
:1084400000280CBF10461846704700BF07B2002036
:10845000878000203C8000202DE9FF411F4B1870D1
:1084600028B11F4B6FF060029A720022DA721D4A27
:108470001D4DDFF87CC017461C4BEE4603F110067D
:10848000744618685968F046A8E803000833B342F8
:10849000C646F6D12B7803F00F0310336B4413F864
:1084A000103CD373114B18685968A646AEE8030018
:1084B0000833B3427446F6D115F8013B04A901EB29
:1084C0001313654513F8103C9373A2F10202D3D144
:1084D00000233B7404B0BDE8F08100BF07B2002068
:1084E000E9800020F6B1002060000010AFBB0F0053
:1084F0006800001010B570B9134B144819680222B7
:1085000003F0CAF801230133DBB211485B0043F4E6
:108510004073038010BD052813D80B4B53F820403F
:10852000204602F0CDFFC3B21F2B28BF1F23084AED
:108530002046E1188842E6D010F8014B22F8024F9D
:10854000F8E70020E6E700BF2480002076B1002095
:1085500074B100204DDF70474EDF70474FDF70472A
:1085600050DF704712DF704700F0C0BE002000F0FF
:108570002BBD00001FB5244B402283F82723002386
:108580008DF807304FF4405304465A681F4B9A4207
:1085900027D10DF10700FFF7E5FF9DF8073003B382
:1085A0000120FFF7D9FF0120FFF7D4FF0120FFF7DB
:1085B000D5FF02A8FFF7D4FF029BDA0702D50020FF
:1085C00000F094FE029B9B0702D5022000F08EFE75
:1085D0002046FFF741FF00F027F802F021FE04B02B
:1085E00010BD002301A88DF80430FCF753FC084BA4
:1085F000039303A8FCF776FCFCF77AFC4FF080436A
:10860000D3F838340293D7E700E100E0DBE5B1515D
:1086100069850F00012000F069BE0120FCF7EEBB68
:108620000220FCF7EBBB00007FB52F492F4802F07A
:1086300065FE4FF440532E4A596891424CD11A7846
:10864000102A46D9142A186944D95B69294CB3FB0E
:10865000F4F50A2201A904FB153402F01BFF264998
:10866000224802F04BFE01A9204802F047FE2349B0
:108670001E4802F043FE0A2201A9284602F00AFF22
:1086800001A91A4802F03AFE1D49184802F036FEC8
:108690004FF47A760A2201A9B4FBF6F5284602F0D7
:1086A000F9FE01A9114802F029FE15490F4802F010
:1086B00025FE0A2201A906FB154002F0EBFE01A9E6
:1086C0000A4802F01BFE0F49084802F017FE04B0EA
:1086D00070BD00200023B9E70B49044804B0BDE891
:1086E000704002F00BBE00BFCBBB0F00FB80002030
:1086F000DBE5B15140420F00D8BB0F00D6BB0F00E5
:10870000DABB0F00E5BB0F00DCBB0F0010B5034662
:108710001C1AA24200DC10BD0C781CB1013103F818
:10872000014BF5E72024FAE72DE9F0410C46054618
:108730004FF4007200212046FBF7DEFD65B95A496F
:108740003E22204602F0A8FF552384F8FE31AA23DA
:1087500084F8FF31BDE8F081B5F5017F29D86B1EA3
:10876000B3F5817F24BF6FF4817805EB08034BB923
:10877000F822227004F109012246FF2002F8010FBD
:108780008A42FBD11B02002240F69360191FB1F50B
:10879000696F03F1010106D2834214BF8BB24FF619
:1087A000FF7324F812300132B2F5807F0B46EDD111
:1087B000D0E7B5F5027F3BD86FF4017C65443DB945
:1087C00020463A490B22FFF7A1FF2823E372203409
:1087D000374B2E014FF0000803EB05256FF0110712
:1087E000022EB7D80B2229462046FFF78FFF5923C8
:1087F0006D2201216374E3746376B31C84F80D80E9
:10880000A773E1732274A27484F8148084F815802D
:10881000A775E17522766383E86830B102F050FEF7
:10882000E061013620341035DAE74FF4E910F7E75C
:10883000204B9D428ED86FF40277EA19012A0DD899
:108840001B4B03EB0213DD68284602F039FE294674
:1088500002462046BDE8F04102F01EBF6FF4FD76EF
:10886000A9190902B1F5801FBFF474AF124B236040
:1088700003F1144303F52C1303F6023363600F4B2B
:10888000C4F8FC314FF46963A3614FF40053A5F2BF
:108890000B254FF48072A360094B6561E160226192
:1088A000E36104F12000D5E70EBC0F0039BC0F00D6
:1088B0004CBC0F00080101005546320A306FB10A66
:1088C0009F009A23F7B5644B14460A689A420D46F6
:1088D00008D103F114434A6803F52C1303F602335D
:1088E0009A4203D04FF0FF3003B0F0BDD1F8FC2125
:1088F0005A4B9A42F6D18B6823F4FF5323F01E03A0
:108900009B049B0CB3F5005FECD10B69B3F5807F42
:10891000E8D1C86810F0FF06E4D1CB69504A934211
:1089200005D0504A934243D04F4A9342DAD1A0F542
:108930008053B3F5692F07D201234FF4807205F1FC
:108940002001FBF7D1FE02E0B0F5805FCAD2AB692F
:108950005BB32268934207D041F263018B4200D897
:108960000AB14FF0FF3323606B6941F26302934217
:108970001BD803F0070204EBD303012191401A7BBB
:108980001142C8B204D16168024301311A736160B7
:10899000D4E900329A4208D30120FBF787FE637ABC
:1089A0001BB1A37A0BB9012323724FF400709BE72C
:1089B00001276772CB68B3F1102F17D1042234312D
:1089C000684602F069FE042205F138010DEB020051
:1089D00002F062FE009BB3F5742F03D1019BB3F547
:1089E0007E2F01D027727DE7A772B0E7A3F574222E
:1089F000B2F5204F28D2E27A01F12007DAB91B4AFA
:108A0000934218D32B69B34215D90422B919684689
:108A100002F042FE009BD02B14D10422311D0DEB3D
:108A20000200394402F038FE0F4B019A9A424FF08F
:108A300001030ED1E372E8682A6901233946A0F5E3
:108A4000A0307EE70836DDE7B3F5805FFFF47FAF47
:108A50000123237246E700BF5546320A306FB10A40
:108A60004028A5AD3C8263D69F009A2300D80F0012
:108A70004FF08053D3F83001082802D1D3F83431B5
:108A800023B9A0F10D0358425841704701207047A7
:108A9000094B012283F8D8200260BFF36F8FBFF328
:108AA0004F8F064A904202D0043A904202D10022EF
:108AB00083F8D820704700BF08B2002050700240F1
:108AC00042DF704743DF704744DF704712DF704773
:108AD00007B54FF4405300205A68084B9A420AD118
:108AE0008DF807000DF10700FFF7F0FF9DF8070074
:108AF000003818BF012003B05DF804FBDBE5B1517D
:108B000007B5FFF7E5FF58B1002301A80193FFF770
:108B1000DBFF0198003818BF012003B05DF804FBAB
:108B20004FF08043D3F80C0400F00110A0F10113C2
:108B300058425841F1E7000010B5134B134A5B68E7
:108B4000C3F3080383B9EFF310836BB910494B6883
:108B50001B0609D58024C1F8844092F8D8308BB91F
:108B6000FFF796FF4C6010BD92F8D83033B1014644
:108B7000BDE810400748012201F079B8BDE8104077
:108B8000FFF786BF4C60E6E700ED00E008B200208A
:108B900000E100E0398B0F000D4B182202FB00337F
:108BA000598A1A8A521A998A92B28A4228BF0A4668
:108BB000D9681423434303F1804303F51C33C3F8FE
:108BC0000016C3F80426034B03EB8000FFF7B4BF85
:108BD00008B2002004700240074BD3F8C024D10330
:108BE00009D406490648D1F8C010C3F8A017C3F845
:108BF000A427FFF7A1BF70470070024008B2002011
:108C000048700240082870B402D170BCFFF7E4BF7E
:108C10000F4D104A00F594731821414352F8234038
:108C20006B18A4B2DE889B8869589B1B9BB2A34239
:108C300028BF2346142404FB0022C2F80017C2F800
:108C40000437054B70BC03EB8000FFF775BF00BF16
:108C500008B20020007002402870024070470000F7
:108C6000014B80225A60704700E100E0024B8022F5
:108C7000C3F88420704700BF00E100E0074BD3F841
:108C80000014D3F800240A43C3F800240022C3F8D8
:108C900058214FF48002C3F804237047007002404B
:108CA00070B58878404D00F07F0318220C26C40967
:108CB0005A4306FB04228E882A44C6F30A0616810C
:108CC000CA7802F00302012A29D00121374A01FAA9
:108CD00003F5D4B903F10C06B140C2F80413D2F87D
:108CE000141503F594732943C2F8141542F8234070
:108CF0002E4BC3F8180540F48070C3F80C05BFF381
:108D00006F8FBFF34F8F012013E002339940C2F8F9
:108D10000413D2F810352B43C2F81035E8E7082BBE
:108D200008D04FF0E023D3F8F03DDB0700D500BEBC
:108D3000002070BD1D4BDCB9B5F8D42012B18022E3
:108D4000C3F81C250022C3F85021D3F8002312F4E5
:108D5000001208BFC3F85421144B4FF44012C3F85B
:108D60000423D3F8142542F48072C3F81425BFE716
:108D70000022C3F82C21B5F8C82012B18022C3F814
:108D80001C25D3F8002312F4001208BFC3F85421A5
:108D9000064B074AC3F80423D3F8102542F4807227
:108DA000C3F81025A4E700BF08B2002000700240FD
:108DB000000820002DE9F8431D4B1E4DDFF8808090
:108DC00080220124C3F88420274604F10C03A21C4E
:108DD00007FA02F207FA03F31343C5F80833A300B6
:108DE00003F1804303F51C3300264FF018095E6041
:108DF00009FB04809E624A4631460134FBF77CFA47
:108E0000082CE2D10C4BC5F808334A46C5F81C655E
:108E10000A486E623146AE64FBF76EFA044BC5F841
:108E200014758022C5F810755A60BDE8F88300BF3C
:108E300000E100E00070024000083000C8B20020ED
:108E400008B20020F7B51F4601F07F0018231F4C21
:108E5000CD090E4643430C2101FB053104EB010C07
:108E600062500022ACF80470ACF8062020BBF7B9C1
:108E7000174BD3F88034C3F3C0139D4217D0154865
:108E8000FFF75AFE144B5B68C3F30803003B18BF9F
:108E9000012300933A463B463146384600F0D0FE67
:108EA000012003B0F0BD0D48FFF746FEF8E7002DA6
:108EB000F9D0FFF771FEF3E7002DFAD11C44A37A35
:108EC000002BEDD0A572FFF79DFEE9E708B2002068
:108ED000007002405070024000ED00E04C70024013
:108EE00011F07F0008B507D10D4B01225A65BFF381
:108EF0006F8FBFF34F8F08BD0828F8D0084B41F49F
:108F00008072C909C3F81825F1D1064B182202FB5B
:108F100000339A7A002AEAD09972FFF773FEE6E7E7
:108F20000070024008B2002011F0770F12D00A4BF7
:108F300041F48072C3F80C15C3F80C25CA09C3F8B4
:108F4000181504BF01F5947143F82120BFF36F8F0A
:108F5000BFF34F8F704700BF00700240174B0122D4
:108F6000002110B5C3F81425C3F810250A468B005C
:108F700003F1804303F51C33013108295A609A62DA
:108F8000F5D10E4B0E4C5A629A64C3F85821D3F8AF
:108F90000014D3F800240A43C3F80024D3F80023B4
:108FA000C3F80823074AC3F804230021DC22204623
:108FB000FBF7A2F94023A382238110BD0070024079
:108FC00008B200200514C0012DE9F04FB34BB44A9C
